{
  "contractName": "Cryptobeacon",
  "abi": [
    {
      "constant": true,
      "inputs": [
        {
          "name": "",
          "type": "uint256"
        }
      ],
      "name": "activities",
      "outputs": [
        {
          "name": "pid",
          "type": "uint256"
        },
        {
          "name": "cid",
          "type": "string"
        },
        {
          "name": "title",
          "type": "string"
        },
        {
          "name": "details",
          "type": "string"
        },
        {
          "name": "category",
          "type": "string"
        },
        {
          "name": "upvotes",
          "type": "uint256"
        }
      ],
      "payable": false,
      "stateMutability": "view",
      "type": "function"
    },
    {
      "constant": true,
      "inputs": [],
      "name": "activityCount",
      "outputs": [
        {
          "name": "",
          "type": "uint256"
        }
      ],
      "payable": false,
      "stateMutability": "view",
      "type": "function"
    },
    {
      "inputs": [],
      "payable": false,
      "stateMutability": "nonpayable",
      "type": "constructor"
    },
    {
      "anonymous": false,
      "inputs": [
        {
          "indexed": true,
          "name": "cid",
          "type": "uint256"
        }
      ],
      "name": "newActivityEvent",
      "type": "event"
    },
    {
      "anonymous": false,
      "inputs": [
        {
          "indexed": true,
          "name": "cid",
          "type": "uint256"
        },
        {
          "indexed": false,
          "name": "voteCount",
          "type": "uint256"
        }
      ],
      "name": "newUpvoteEvent",
      "type": "event"
    },
    {
      "constant": false,
      "inputs": [
        {
          "name": "_cid",
          "type": "string"
        },
        {
          "name": "_title",
          "type": "string"
        },
        {
          "name": "_details",
          "type": "string"
        },
        {
          "name": "_category",
          "type": "string"
        }
      ],
      "name": "addActivity",
      "outputs": [],
      "payable": false,
      "stateMutability": "nonpayable",
      "type": "function"
    },
    {
      "constant": true,
      "inputs": [
        {
          "name": "_pid",
          "type": "uint256"
        }
      ],
      "name": "getActivity",
      "outputs": [
        {
          "components": [
            {
              "name": "pid",
              "type": "uint256"
            },
            {
              "name": "cid",
              "type": "string"
            },
            {
              "name": "title",
              "type": "string"
            },
            {
              "name": "details",
              "type": "string"
            },
            {
              "name": "category",
              "type": "string"
            },
            {
              "name": "upvotes",
              "type": "uint256"
            }
          ],
          "name": "",
          "type": "tuple"
        }
      ],
      "payable": false,
      "stateMutability": "view",
      "type": "function"
    },
    {
      "constant": true,
      "inputs": [],
      "name": "getLast5Activities",
      "outputs": [
        {
          "components": [
            {
              "name": "pid",
              "type": "uint256"
            },
            {
              "name": "cid",
              "type": "string"
            },
            {
              "name": "title",
              "type": "string"
            },
            {
              "name": "details",
              "type": "string"
            },
            {
              "name": "category",
              "type": "string"
            },
            {
              "name": "upvotes",
              "type": "uint256"
            }
          ],
          "name": "",
          "type": "tuple"
        },
        {
          "components": [
            {
              "name": "pid",
              "type": "uint256"
            },
            {
              "name": "cid",
              "type": "string"
            },
            {
              "name": "title",
              "type": "string"
            },
            {
              "name": "details",
              "type": "string"
            },
            {
              "name": "category",
              "type": "string"
            },
            {
              "name": "upvotes",
              "type": "uint256"
            }
          ],
          "name": "",
          "type": "tuple"
        },
        {
          "components": [
            {
              "name": "pid",
              "type": "uint256"
            },
            {
              "name": "cid",
              "type": "string"
            },
            {
              "name": "title",
              "type": "string"
            },
            {
              "name": "details",
              "type": "string"
            },
            {
              "name": "category",
              "type": "string"
            },
            {
              "name": "upvotes",
              "type": "uint256"
            }
          ],
          "name": "",
          "type": "tuple"
        },
        {
          "components": [
            {
              "name": "pid",
              "type": "uint256"
            },
            {
              "name": "cid",
              "type": "string"
            },
            {
              "name": "title",
              "type": "string"
            },
            {
              "name": "details",
              "type": "string"
            },
            {
              "name": "category",
              "type": "string"
            },
            {
              "name": "upvotes",
              "type": "uint256"
            }
          ],
          "name": "",
          "type": "tuple"
        },
        {
          "components": [
            {
              "name": "pid",
              "type": "uint256"
            },
            {
              "name": "cid",
              "type": "string"
            },
            {
              "name": "title",
              "type": "string"
            },
            {
              "name": "details",
              "type": "string"
            },
            {
              "name": "category",
              "type": "string"
            },
            {
              "name": "upvotes",
              "type": "uint256"
            }
          ],
          "name": "",
          "type": "tuple"
        }
      ],
      "payable": false,
      "stateMutability": "view",
      "type": "function"
    },
    {
      "constant": false,
      "inputs": [
        {
          "name": "_pid",
          "type": "uint256"
        }
      ],
      "name": "upVote",
      "outputs": [],
      "payable": false,
      "stateMutability": "nonpayable",
      "type": "function"
    }
  ],
  "bytecode": "0x60806040523480156200001157600080fd5b5060006001819055506200010b6040805190810160405280601081526020017f30784141414141414141414141414141000000000000000000000000000000008152506040805190810160405280600281526020017f74310000000000000000000000000000000000000000000000000000000000008152506040805190810160405280601781526020017f4c4f52454d20495053554d204c4f52454d20495053554d0000000000000000008152506040805190810160405280600e81526020017f61646d696e697374726174696f6e000000000000000000000000000000000000815250620004d5640100000000026401000000009004565b620001fc6040805190810160405280601081526020017f30784242424242424242424242424242000000000000000000000000000000008152506040805190810160405280600281526020017f74320000000000000000000000000000000000000000000000000000000000008152506040805190810160405280601781526020017f4c4f52454d20495053554d204c4f52454d20495053554d0000000000000000008152506040805190810160405280600881526020017f706f6c6974696373000000000000000000000000000000000000000000000000815250620004d5640100000000026401000000009004565b620002ed6040805190810160405280601081526020017f30784343434343434343434343434343000000000000000000000000000000008152506040805190810160405280600281526020017f74330000000000000000000000000000000000000000000000000000000000008152506040805190810160405280601781526020017f4c4f52454d20495053554d204c4f52454d20495053554d0000000000000000008152506040805190810160405280600981526020017f656475636174696f6e0000000000000000000000000000000000000000000000815250620004d5640100000000026401000000009004565b620003de6040805190810160405280601081526020017f30784444444444444444444444444444000000000000000000000000000000008152506040805190810160405280600281526020017f74340000000000000000000000000000000000000000000000000000000000008152506040805190810160405280601781526020017f4c4f52454d20495053554d204c4f52454d20495053554d0000000000000000008152506040805190810160405280600881526020017f627573696e657373000000000000000000000000000000000000000000000000815250620004d5640100000000026401000000009004565b620004cf6040805190810160405280601081526020017f30784545454545454545454545454545000000000000000000000000000000008152506040805190810160405280600281526020017f74350000000000000000000000000000000000000000000000000000000000008152506040805190810160405280601781526020017f4c4f52454d20495053554d204c4f52454d20495053554d0000000000000000008152506040805190810160405280600a81526020017f746563686e6f6c6f677900000000000000000000000000000000000000000000815250620004d5640100000000026401000000009004565b62000665565b60006001600081548092919060010191905055506000806001548152602001908152602001600020905060015481600001819055508481600101908051906020019062000524929190620005b6565b50838160020190805190602001906200053f929190620005b6565b50828160030190805190602001906200055a929190620005b6565b508181600401908051906020019062000575929190620005b6565b50600081600501819055506001547f7e82ecaa13e66d71f05856e870664ed7cfb804ae3e0c1ac229a616197dd262c360405160405180910390a25050505050565b828054600181600116156101000203166002900490600052602060002090601f016020900481019282601f10620005f957805160ff19168380011785556200062a565b828001600101855582156200062a579182015b82811115620006295782518255916020019190600101906200060c565b5b5090506200063991906200063d565b5090565b6200066291905b808211156200065e57600081600090555060010162000644565b5090565b90565b611bee80620006756000396000f300608060405260043610610078576000357c0100000000000000000000000000000000000000000000000000000000900463ffffffff1680630d1657e81461007d5780634f3186b9146100bf578063922635d8146100ee578063e6240deb1461012b578063ec859db514610156578063f9d343a61461017f575b600080fd5b34801561008957600080fd5b506100a4600480360361009f91908101906118ad565b6101a8565b6040516100b696959493929190611a6c565b60405180910390f35b3480156100cb57600080fd5b506100d4610444565b6040516100e59594939291906119db565b60405180910390f35b3480156100fa57600080fd5b50610115600480360361011091908101906118ad565b611255565b60405161012291906119b9565b60405180910390f35b34801561013757600080fd5b5061014061153b565b60405161014d9190611a51565b60405180910390f35b34801561016257600080fd5b5061017d600480360361017891908101906118ad565b611541565b005b34801561018b57600080fd5b506101a660048036036101a191908101906117ea565b6115cb565b005b6000602052806000526040600020600091509050806000015490806001018054600181600116156101000203166002900480601f01602080910402602001604051908101604052809291908181526020018280546001816001161561010002031660029004801561025a5780601f1061022f5761010080835404028352916020019161025a565b820191906000526020600020905b81548152906001019060200180831161023d57829003601f168201915b505050505090806002018054600181600116156101000203166002900480601f0160208091040260200160405190810160405280929190818152602001828054600181600116156101000203166002900480156102f85780601f106102cd576101008083540402835291602001916102f8565b820191906000526020600020905b8154815290600101906020018083116102db57829003601f168201915b505050505090806003018054600181600116156101000203166002900480601f0160208091040260200160405190810160405280929190818152602001828054600181600116156101000203166002900480156103965780601f1061036b57610100808354040283529160200191610396565b820191906000526020600020905b81548152906001019060200180831161037957829003601f168201915b505050505090806004018054600181600116156101000203166002900480601f0160208091040260200160405190810160405280929190818152602001828054600181600116156101000203166002900480156104345780601f1061040957610100808354040283529160200191610434565b820191906000526020600020905b81548152906001019060200180831161041757829003601f168201915b5050505050908060050154905086565b61044c6116a4565b6104546116a4565b61045c6116a4565b6104646116a4565b61046c6116a4565b60056001541015151561047e57600080fd5b6000806001548152602001908152602001600020600080600180540381526020019081526020016000206000806002600154038152602001908152602001600020600080600360015403815260200190815260200160002060008060046001540381526020019081526020016000208460c0604051908101604052908160008201548152602001600182018054600181600116156101000203166002900480601f01602080910402602001604051908101604052809291908181526020018280546001816001161561010002031660029004801561059d5780601f106105725761010080835404028352916020019161059d565b820191906000526020600020905b81548152906001019060200180831161058057829003601f168201915b50505050508152602001600282018054600181600116156101000203166002900480601f01602080910402602001604051908101604052809291908181526020018280546001816001161561010002031660029004801561063f5780601f106106145761010080835404028352916020019161063f565b820191906000526020600020905b81548152906001019060200180831161062257829003601f168201915b50505050508152602001600382018054600181600116156101000203166002900480601f0160208091040260200160405190810160405280929190818152602001828054600181600116156101000203166002900480156106e15780601f106106b6576101008083540402835291602001916106e1565b820191906000526020600020905b8154815290600101906020018083116106c457829003601f168201915b50505050508152602001600482018054600181600116156101000203166002900480601f0160208091040260200160405190810160405280929190818152602001828054600181600116156101000203166002900480156107835780601f1061075857610100808354040283529160200191610783565b820191906000526020600020905b81548152906001019060200180831161076657829003601f168201915b5050505050815260200160058201548152505094508360c0604051908101604052908160008201548152602001600182018054600181600116156101000203166002900480601f0160208091040260200160405190810160405280929190818152602001828054600181600116156101000203166002900480156108485780601f1061081d57610100808354040283529160200191610848565b820191906000526020600020905b81548152906001019060200180831161082b57829003601f168201915b50505050508152602001600282018054600181600116156101000203166002900480601f0160208091040260200160405190810160405280929190818152602001828054600181600116156101000203166002900480156108ea5780601f106108bf576101008083540402835291602001916108ea565b820191906000526020600020905b8154815290600101906020018083116108cd57829003601f168201915b50505050508152602001600382018054600181600116156101000203166002900480601f01602080910402602001604051908101604052809291908181526020018280546001816001161561010002031660029004801561098c5780601f106109615761010080835404028352916020019161098c565b820191906000526020600020905b81548152906001019060200180831161096f57829003601f168201915b50505050508152602001600482018054600181600116156101000203166002900480601f016020809104026020016040519081016040528092919081815260200182805460018160011615610100020316600290048015610a2e5780601f10610a0357610100808354040283529160200191610a2e565b820191906000526020600020905b815481529060010190602001808311610a1157829003601f168201915b5050505050815260200160058201548152505093508260c0604051908101604052908160008201548152602001600182018054600181600116156101000203166002900480601f016020809104026020016040519081016040528092919081815260200182805460018160011615610100020316600290048015610af35780601f10610ac857610100808354040283529160200191610af3565b820191906000526020600020905b815481529060010190602001808311610ad657829003601f168201915b50505050508152602001600282018054600181600116156101000203166002900480601f016020809104026020016040519081016040528092919081815260200182805460018160011615610100020316600290048015610b955780601f10610b6a57610100808354040283529160200191610b95565b820191906000526020600020905b815481529060010190602001808311610b7857829003601f168201915b50505050508152602001600382018054600181600116156101000203166002900480601f016020809104026020016040519081016040528092919081815260200182805460018160011615610100020316600290048015610c375780601f10610c0c57610100808354040283529160200191610c37565b820191906000526020600020905b815481529060010190602001808311610c1a57829003601f168201915b50505050508152602001600482018054600181600116156101000203166002900480601f016020809104026020016040519081016040528092919081815260200182805460018160011615610100020316600290048015610cd95780601f10610cae57610100808354040283529160200191610cd9565b820191906000526020600020905b815481529060010190602001808311610cbc57829003601f168201915b5050505050815260200160058201548152505092508160c0604051908101604052908160008201548152602001600182018054600181600116156101000203166002900480601f016020809104026020016040519081016040528092919081815260200182805460018160011615610100020316600290048015610d9e5780601f10610d7357610100808354040283529160200191610d9e565b820191906000526020600020905b815481529060010190602001808311610d8157829003601f168201915b50505050508152602001600282018054600181600116156101000203166002900480601f016020809104026020016040519081016040528092919081815260200182805460018160011615610100020316600290048015610e405780601f10610e1557610100808354040283529160200191610e40565b820191906000526020600020905b815481529060010190602001808311610e2357829003601f168201915b50505050508152602001600382018054600181600116156101000203166002900480601f016020809104026020016040519081016040528092919081815260200182805460018160011615610100020316600290048015610ee25780601f10610eb757610100808354040283529160200191610ee2565b820191906000526020600020905b815481529060010190602001808311610ec557829003601f168201915b50505050508152602001600482018054600181600116156101000203166002900480601f016020809104026020016040519081016040528092919081815260200182805460018160011615610100020316600290048015610f845780601f10610f5957610100808354040283529160200191610f84565b820191906000526020600020905b815481529060010190602001808311610f6757829003601f168201915b5050505050815260200160058201548152505091508060c0604051908101604052908160008201548152602001600182018054600181600116156101000203166002900480601f0160208091040260200160405190810160405280929190818152602001828054600181600116156101000203166002900480156110495780601f1061101e57610100808354040283529160200191611049565b820191906000526020600020905b81548152906001019060200180831161102c57829003601f168201915b50505050508152602001600282018054600181600116156101000203166002900480601f0160208091040260200160405190810160405280929190818152602001828054600181600116156101000203166002900480156110eb5780601f106110c0576101008083540402835291602001916110eb565b820191906000526020600020905b8154815290600101906020018083116110ce57829003601f168201915b50505050508152602001600382018054600181600116156101000203166002900480601f01602080910402602001604051908101604052809291908181526020018280546001816001161561010002031660029004801561118d5780601f106111625761010080835404028352916020019161118d565b820191906000526020600020905b81548152906001019060200180831161117057829003601f168201915b50505050508152602001600482018054600181600116156101000203166002900480601f01602080910402602001604051908101604052809291908181526020018280546001816001161561010002031660029004801561122f5780601f106112045761010080835404028352916020019161122f565b820191906000526020600020905b81548152906001019060200180831161121257829003601f168201915b505050505081526020016005820154815250509050945094509450945094509091929394565b61125d6116a4565b60008211801561126f57506001548211155b151561127a57600080fd5b60008083815260200190815260200160002060c0604051908101604052908160008201548152602001600182018054600181600116156101000203166002900480601f01602080910402602001604051908101604052809291908181526020018280546001816001161561010002031660029004801561133b5780601f106113105761010080835404028352916020019161133b565b820191906000526020600020905b81548152906001019060200180831161131e57829003601f168201915b50505050508152602001600282018054600181600116156101000203166002900480601f0160208091040260200160405190810160405280929190818152602001828054600181600116156101000203166002900480156113dd5780601f106113b2576101008083540402835291602001916113dd565b820191906000526020600020905b8154815290600101906020018083116113c057829003601f168201915b50505050508152602001600382018054600181600116156101000203166002900480601f01602080910402602001604051908101604052809291908181526020018280546001816001161561010002031660029004801561147f5780601f106114545761010080835404028352916020019161147f565b820191906000526020600020905b81548152906001019060200180831161146257829003601f168201915b50505050508152602001600482018054600181600116156101000203166002900480601f0160208091040260200160405190810160405280929190818152602001828054600181600116156101000203166002900480156115215780601f106114f657610100808354040283529160200191611521565b820191906000526020600020905b81548152906001019060200180831161150457829003601f168201915b505050505081526020016005820154815250509050919050565b60015481565b60008082815260200190815260200160002060050160008154809291906001019190505550600080828152602001908152602001600020600001547f376a3a6f7e359560a5a93b254766bd4c966ff27b3baf06b618575608ba027eb8600080848152602001908152602001600020600501546040516115c09190611a51565b60405180910390a250565b6000600160008154809291906001019190505550600080600154815260200190815260200160002090506001548160000181905550848160010190805190602001906116189291906116db565b50838160020190805190602001906116319291906116db565b508281600301908051906020019061164a9291906116db565b50818160040190805190602001906116639291906116db565b50600081600501819055506001547f7e82ecaa13e66d71f05856e870664ed7cfb804ae3e0c1ac229a616197dd262c360405160405180910390a25050505050565b60c0604051908101604052806000815260200160608152602001606081526020016060815260200160608152602001600081525090565b828054600181600116156101000203166002900490600052602060002090601f016020900481019282601f1061171c57805160ff191683800117855561174a565b8280016001018555821561174a579182015b8281111561174957825182559160200191906001019061172e565b5b509050611757919061175b565b5090565b61177d91905b80821115611779576000816000905550600101611761565b5090565b90565b600082601f830112151561179357600080fd5b81356117a66117a182611b16565b611ae9565b915080825260208301602083018583830111156117c257600080fd5b6117cd838284611b61565b50505092915050565b60006117e28235611b57565b905092915050565b6000806000806080858703121561180057600080fd5b600085013567ffffffffffffffff81111561181a57600080fd5b61182687828801611780565b945050602085013567ffffffffffffffff81111561184357600080fd5b61184f87828801611780565b935050604085013567ffffffffffffffff81111561186c57600080fd5b61187887828801611780565b925050606085013567ffffffffffffffff81111561189557600080fd5b6118a187828801611780565b91505092959194509250565b6000602082840312156118bf57600080fd5b60006118cd848285016117d6565b91505092915050565b60006118e182611b42565b8084526118f5816020860160208601611b70565b6118fe81611ba3565b602085010191505092915050565b600060c08301600083015161192460008601826119aa565b506020830151848203602086015261193c82826118d6565b9150506040830151848203604086015261195682826118d6565b9150506060830151848203606086015261197082826118d6565b9150506080830151848203608086015261198a82826118d6565b91505060a083015161199f60a08601826119aa565b508091505092915050565b6119b381611b4d565b82525050565b600060208201905081810360008301526119d3818461190c565b905092915050565b600060a08201905081810360008301526119f5818861190c565b90508181036020830152611a09818761190c565b90508181036040830152611a1d818661190c565b90508181036060830152611a31818561190c565b90508181036080830152611a45818461190c565b90509695505050505050565b6000602082019050611a6660008301846119aa565b92915050565b600060c082019050611a8160008301896119aa565b8181036020830152611a9381886118d6565b90508181036040830152611aa781876118d6565b90508181036060830152611abb81866118d6565b90508181036080830152611acf81856118d6565b9050611ade60a08301846119aa565b979650505050505050565b6000604051905081810181811067ffffffffffffffff82111715611b0c57600080fd5b8060405250919050565b600067ffffffffffffffff821115611b2d57600080fd5b601f19601f8301169050602081019050919050565b600081519050919050565b6000819050919050565b6000819050919050565b82818337600083830152505050565b60005b83811015611b8e578082015181840152602081019050611b73565b83811115611b9d576000848401525b50505050565b6000601f19601f83011690509190505600a265627a7a723058207fc70322c782b7d9511ecbba24670f857f09ab6054f3a13c2c368b9fe996f02a6c6578706572696d656e74616cf50037",
  "source": "// SPDX-License-Identifier: MIT\r\npragma solidity 0.4.22;\r\npragma experimental ABIEncoderV2;\r\n\r\ncontract Cryptobeacon{\r\n  // // enum for categories\r\n  // enum Category { Administration, Politics, Education, Business, Technology, Society, Others }\r\n  //\r\n  struct activity{\r\n    uint pid;\r\n    string cid;\r\n    string title;\r\n    string details;\r\n    string category;\r\n    uint upvotes;\r\n  }\r\n\r\n  //read/write Activities\r\n  mapping(uint => activity) public activities;\r\n\r\n  event newActivityEvent(\r\n    uint indexed cid\r\n  );\r\n  event newUpvoteEvent(\r\n    uint indexed cid,\r\n    uint voteCount\r\n  );\r\n\r\n  //Counter Cache for activities\r\n  uint public activityCount;\r\n\r\n   //cnstructor runs when contract is being deployed on blockchain\r\n  constructor() public {\r\n      activityCount = 0;\r\n      addActivity(\"0xAAAAAAAAAAAAAA\", \"t1\",\"LOREM IPSUM LOREM IPSUM\", \"administration\");\r\n      addActivity(\"0xBBBBBBBBBBBBBB\", \"t2\",\"LOREM IPSUM LOREM IPSUM\", \"politics\");\r\n      addActivity(\"0xCCCCCCCCCCCCCC\", \"t3\",\"LOREM IPSUM LOREM IPSUM\", \"education\");\r\n      addActivity(\"0xDDDDDDDDDDDDDD\", \"t4\",\"LOREM IPSUM LOREM IPSUM\", \"business\");\r\n      addActivity(\"0xEEEEEEEEEEEEEE\", \"t5\",\"LOREM IPSUM LOREM IPSUM\", \"technology\");\r\n  }\r\n\r\n  function addActivity(string _cid, string _title, string _details, string _category) public {\r\n      \r\n      activityCount++;\r\n      activity storage act = activities[activityCount];\r\n\r\n      act.pid = activityCount;\r\n      act.cid = _cid;\r\n      act.title = _title;\r\n      act.details = _details;\r\n      act.category = _category;\r\n      act.upvotes = 0;\r\n     \r\n      //trigger new activity event\r\n      emit newActivityEvent(activityCount);\r\n  }\r\n\r\n\tfunction getActivity(uint _pid) public view returns(activity){\r\n     // bound check\r\n      require(_pid > 0 && _pid <= activityCount);\r\n\t\t  return activities[_pid];\r\n\t}\r\n\r\n  function getLast5Activities() public view returns(activity, activity, activity, activity, activity){\r\n     // bound check \r\n      require(activityCount >= 5);\r\n\t\t  return (activities[activityCount], activities[activityCount-1], activities[activityCount-2], activities[activityCount-3], activities[activityCount-4]);\r\n\t}\r\n  function upVote(uint _pid) public {\r\n\r\n      activities[_pid].upvotes++;\r\n      //trigger new activity event\r\n      emit newUpvoteEvent(activities[_pid].pid, activities[_pid].upvotes);\r\n  }\r\n    \r\n}\r\n",
  "sourcePath": "L:/Personal Works/MLH Neighbourhood/prototype v1/contracts/Cryptobeacon.sol",
  "compiler": {
    "name": "solc",
    "version": "0.4.22+commit.4cb486ee.Emscripten.clang"
  },
  "schemaVersion": "3.4.1",
  "updatedAt": "2021-05-15T23:44:51.359Z",
  "networkType": "ethereum",
  "devdoc": {
    "methods": {}
  },
  "userdoc": {
    "methods": {}
  }
}